:100000000C948C000C94B4000C94B4000C94A703D2
:100010000C94A7030C94A7030C94B4000C94B400A4
:100020000C94B4000C94B4000C94B4000C94B40080
:100030000C94B4000C94B4000C94B4000C94B40070
:100040000C947A050C94B4000C9475030C944F0333
:100050000C94B4000C94B4000C94B4000C94B40050
:100060000C94B4000C94B400510A630A660A6D0A39
:10007000740AA20AA90AB60AC30ACF0ACF0ACF0A8B
:10008000CF0ACF0ACF0ACF0ACF0ACF0ACF0ACF0AA8
:10009000CF0ACF0ACF0ACF0ACF0ACF0ACF0ACF0A98
:1000A000CF0ACF0ACF0ACF0A510A5E0A630A660A4C
:1000B0006D0A740A7B0A880A950A0000000800028B
:1000C0000100000304070000000000000000000021
:1000D0000000230026002900000000002400270063
:1000E0002A0000000000250028002B00040404045E
:1000F00004040404020202020202030303030303D2
:1001000001020408102040800102040810200102AE
:1001100004081020A60B3D0B11241FBECFEFD8E022
:10012000DEBFCDBF11E0A0E0B1E0E4EFF0E202C03D
:1001300005900D92A838B107D9F723E0A8E8B1E0FF
:1001400001C01D92AE33B207E1F710E0CBE8D0E07A
:1001500004C02197FE010E940D10CA38D107C9F7CB
:100160000E94C4050C946D100C940000FC01538D8A
:10017000448D252F30E0842F90E0821B930B541781
:1001800010F0CF96089501970895FC01918D828D0E
:10019000981761F0828DDF01A80FB11D5D968C91DB
:1001A000928D9F5F9F73928F90E008958FEF9FEFE6
:1001B0000895FC01918D828D981731F0828DE80FA2
:1001C000F11D858D90E008958FEF9FEF0895FC015C
:1001D000918D228D892F90E0805C9F4F821B910929
:1001E0008F73992708958CEC91E00E94E70021E03D
:1001F000892B09F420E0822F0895FC01848DDF0112
:10020000A80FB11DA35ABF4F2C91848D90E0019689
:100210008F739927848FA689B7892C93A089B18978
:100220008C91837080648C93938D848D981306C019
:100230000288F389E02D80818F7D80830895EF927D
:10024000FF920F931F93CF93DF93EC0181E0888F90
:100250009B8D8C8D981305C0E889F989808185FD77
:1002600026C0F62E0B8D10E00F5F1F4F0F73112766
:10027000E02E8C8DE8120CC00FB607FCFACFE8898F
:10028000F989808185FFF5CFCE010E94FD00F1CF75
:100290008B8DFE01E80FF11DE35AFF4FF0829FB7EF
:1002A000F8940B8FEA89FB89808180620AC09FB72E
:1002B000F894EE89FF896083E889F98980818370E9
:1002C000806480839FBF81E090E0DF91CF911F9198
:1002D0000F91FF90EF900895CF93DF93EC01888DFD
:1002E0008823C9F0EA89FB89808185FD05C0A8893A
:1002F000B9898C9186FD0FC00FB607FCF5CF8081C0
:1003000085FFF2CFA889B9898C9185FFEDCFCE0109
:100310000E94FD00E7CFDF91CF91089580E090E04B
:10032000892B29F00E94F30081110C94000008959C
:100330002091CA013091CB012817390771F49091AF
:10034000C8018091C901981741F0E091C801F0E01F
:10035000E857FE4F808190E008958FEF9FEF08955A
:1003600008951F93CF93DF93DC015C968D919C9150
:100370005D97009739F421E030E013963C932E937B
:1003800012973BC05196ED91FC91529750962C914B
:100390005097322F30951FB75E964C915E97742F11
:1003A000727041FD6095F8944081772311F0422BE3
:1003B00001C043234083EC012197F1F748E05081CD
:1003C00060FF02C0522B01C053235083EC012197E0
:1003D000F1F76695415099F78081772319F08323CF
:1003E000808302C0282B20831FBF5C968D919C9137
:1003F0005D970197F1F781E090E0DF91CF911F9138
:1004000008952091CA013091CB012817390771F462
:100410008091C9012091C80190E0805C9F4F821BB0
:10042000910960E470E00E94D70F089580E090E0A9
:1004300008952091CA013091CB0128173907B9F4EA
:100440009091C8018091C901981789F0E091C80185
:10045000F0E0E857FE4F80812091C80130E02F5F27
:100460003F4F2F7333272093C80190E008958FEFFB
:100470009FEF0895089580E090E00895CF93DF9373
:10048000EC018A859B85AC85BD858E839F83A8877B
:10049000B9870E946E056A837B838C839D8381E08C
:1004A00089838883DF91CF910895CF93DF93EC0107
:1004B0008E819F81A885B9858A839B83AC83BD8308
:1004C0000E946E056A877B878C879D8781E0898380
:1004D0008883DF91CF9108952F923F924F925F9240
:1004E0006F927F928F929F92AF92BF92CF92DF9244
:1004F000EF92FF920F931F93CF93DF93D82FC92FC3
:100500008B010E944F0D24E630E040E050E00E9455
:10051000EB0F49015A019B01AC0160E876E988E9DB
:1005200090E00E94C70F6B017C01F80191828082EC
:10053000ED2FFC2F2191822F022E000C990BC097DA
:100540000A97C0F32E3239F51F0180E8882E86E91C
:10055000982E88E9A82EB12C9AE0492E512C612CB6
:10056000712CF101C1911F010C2E000CDD0BE097E5
:10057000CA30D10580F4C501B401A30192010E94E3
:10058000EB0F49015A01DE010E941E10C60ED71E54
:10059000E81EF91EE6CFA5E0B0E0A70196010E9493
:1005A00013106F5F7F4F8F4F9F4F23E030E040E08D
:1005B00050E00E94EB0FF80122833383448355837C
:1005C0001682DF91CF911F910F91FF90EF90DF90F6
:1005D000CF90BF90AF909F908F907F906F905F90E3
:1005E0004F903F902F900895FF920F931F93CF93BA
:1005F000DF93EC01F8802DE2F21201C02196CE01CA
:100600000E944F0D9B01AC01A4E6B0E00E941310C4
:10061000FE014991242F042E000C330B2053310985
:100620002A303105A8F34E3241F52181022E000C0B
:10063000330B205331092A303105F8F44AE0429F48
:100640008001439F100D1124012E000C220B330B4F
:10065000600F711F821F931F0281002E000C110B6F
:10066000005311090A30110540F4012E000C220B31
:10067000330B600F711F821F931F2DE2F21207C010
:1006800090958095709561957F4F8F4F9F4FDF912B
:10069000CF911F910F91FF9008950E9449101F92D2
:1006A0000F920FB60F9211242F933F934F935F93A6
:1006B0006F937F938F939F93AF93BF93EF93FF932A
:1006C0008CEC91E00E94FD00FF91EF91BF91AF9102
:1006D0009F918F917F916F915F914F913F912F915A
:1006E0000F900FBE0F901F9018951F920F920FB68C
:1006F0000F9211242F938F939F93EF93FF93E09189
:10070000DC01F091DD018081E091E201F091E301F3
:1007100082FD12C090818091E5018F5F8F732091DF
:10072000E601821751F0E091E501F0E0E453FE4F5D
:10073000958F8093E50101C08081FF91EF919F919A
:100740008F912F910F900FBE0F901F9018951F92B1
:100750000F920FB60F9211242F933F934F935F93F5
:100760006F937F938F939F93AF93BF93EF93FF9379
:10077000E091CA01F091CB01309709F451C0968DF8
:10078000A685B785858591FF04C09C91892329F4AE
:1007900047C09C91892309F043C0A389B4899C91E7
:1007A0008589809589238C93868997890197F1F7AC
:1007B000608D718DA685B785558538E020E0CB0129
:1007C0000197F1F7822F90E095958795282F4C910E
:1007D000452309F02068315091F7868D81FD2095E1
:1007E0008091C90190E001968F7399273091C801DB
:1007F000381749F0A091C901B0E0A857BE4F2C931B
:100800008093C90103C0868D8160868F828D938D10
:100810000197F1F7A389B4899C918589892B8C93E1
:10082000FF91EF91BF91AF919F918F917F916F91C8
:100830005F914F913F912F910F900FBE0F901F909E
:100840001895CF92DF92EF92FF920F931F93CF9361
:10085000DF936C017A018B01C0E0D0E0CE15DF059B
:1008600081F0D8016D918D01D601ED91FC9101903F
:10087000F081E02DC6010995892B11F02196EECF6C
:100880007E01C701DF91CF911F910F91FF90EF90F3
:10089000DF90CF900895009769F0FC01019000204F
:1008A000E9F73197AF01481B590BBC018CEC91E083
:1008B0000C94210480E090E008958F929F92AF9273
:1008C000BF920F931F93CF93DF93CDB7DEB7A1975E
:1008D0000FB6F894DEBF0FBECDBF19A2423008F4A8
:1008E0004AE08E010F5D1F4F842E912CA12CB12C5C
:1008F000A50194010E94EB0FE62FB901CA01015036
:100900001109EA3014F4E05D01C0E95CD801EC9310
:10091000232B242B252B61F7C8010E944B04A196A1
:100920000FB6F894DEBF0FBECDBFDF91CF911F9100
:100930000F91BF90AF909F908F9008950C944B04AF
:10094000682F8CEC91E00C941F018F929F92AF92D4
:10095000BF92CF92DF92EF92FF920F931F93CF93AC
:10096000DF936B017C01142F9B01AC010E94C20F2D
:10097000882319F08CE791E027C046015701E894DD
:10098000B7F82FEF3FEF4FE75FE7C501B4010E94D3
:10099000C20F81110DC02FEF3FEF4FE75FE7C50199
:1009A000B4010E94F80D18161CF480E891E00CC008
:1009B0002FEF3FEF4FE75FE4C701B6010E94500FF2
:1009C000181634F484E891E00E944B04EC0173C0E3
:1009D0002FEF3FEF4FE75FECC701B6010E94F80D24
:1009E00087FDF0CF20E030E0A901C701B6010E94E9
:1009F000F80D87FF09C08DE20E94A004EC01F7FA10
:100A0000F094F7F8F09402C0C0E0D0E000E060E0BD
:100A100070E080E09FE3011740F420E030E040E226
:100A200051E40E94FD0D0F5FF6CFA70196010E94D1
:100A30008C0D6B017C010E946F0E4B015C014AE042
:100A40000E945D04C80FD91F1123A9F1C501B4018B
:100A50000E949E0E9B01AC01C701B6010E948B0D46
:100A60006B017C018EE20E94A004C80FD91F20E018
:100A700030E040E251E4C701B6010E94550F4B013E
:100A80005C010E946F0E6B01E12CF12C4AE0C70162
:100A9000B6010E945D04C80FD91FC701B6010E94AC
:100AA0009E0E9B01AC01C501B4010E948B0D6B0130
:100AB0007C011150E1F681E591E00E944B048C0F1E
:100AC0009D1FDF91CF911F910F91FF90EF90DF90CD
:100AD000CF90BF90AF909F908F9008952FB7F894CC
:100AE00060913A0370913B0380913C0390913D03E8
:100AF0002FBF08951F920F920FB60F9211242F93BC
:100B00003F938F939F93AF93BF9380913A039091BC
:100B10003B03A0913C03B0913D033091390326E0A3
:100B2000230F2D3720F40296A11DB11D05C029E821
:100B3000230F0396A11DB11D2093390380933A031F
:100B400090933B03A0933C03B0933D038091350306
:100B500090913603A0913703B09138030196A11DFF
:100B6000B11D8093350390933603A0933703B09360
:100B70003803BF91AF919F918F913F912F910F902B
:100B80000FBE0F901F901895789484B5826084BD35
:100B900084B5816084BD85B5826085BD85B5816081
:100BA00085BD80916E00816080936E0010928100FF
:100BB00080918100826080938100809181008160BA
:100BC000809381008091800081608093800080917B
:100BD000B10084608093B1008091B0008160809307
:100BE000B00080917A00846080937A0080917A00CE
:100BF000826080937A0080917A008E7F80937A0061
:100C000080917A00806880937A001092C100E09110
:100C1000DC01F091DD0182E08083E091D801F09168
:100C2000D9011082E091DA01F091DB0187E680833F
:100C30001092E401E091E001F091E10186E080830F
:100C4000E091DE01F091DF01808180618083E0919D
:100C5000DE01F091DF01808188608083E091DE0118
:100C6000F091DF01808180688083E091DE01F09166
:100C7000DF0180818F7D8083109284021092830235
:100C800010928202109281021092800210927F02D2
:100C90008DEC90E09093860280938502909175028E
:100CA000963108F058C025E530E03093800220935B
:100CB0007F022BEC30E0309382022093810220E906
:100CC00030E0309384022093830240916800983092
:100CD00058F031E09E3008F430E021E0822F01C06E
:100CE000880F3A95EAF701C084E0842B809368006E
:100CF000983038F09E3040F0963148F020E030E0F7
:100D000008C02DE630E005C02BE630E002C02CE63E
:100D100030E030937D0220937C02983030F481E003
:100D200001C0880F9A95EAF70EC0292F30E09E3057
:100D300018F42850310902C02E50310981E001C059
:100D4000880F2A95EAF780937E0280918502909120
:100D500086020197F1F78091830290918402892B9A
:100D600049F1E091CA01F091CB0122E0E936F207A6
:100D700009F1309739F0A389B4899C9185898095D0
:100D800089238C93809187028E7F809387021092B3
:100D9000C9011092C80189E692E09093CB0180933B
:100DA000CA01E0917C02F0917D02908180917E02E7
:100DB000892B808380E1882E87E2982EA12CB12C8C
:100DC00094E6C92ED12CE12CF12C2224239422E08C
:100DD000322E01E084E291E00E949E04109289028A
:100DE00060918C0270918D0280918E0290918F02A1
:100DF0000E949E0E28E23BE64EE65EE40E94FD0D58
:100E00002B013C0160918A0270918B0280E090E09E
:100E10000E949E0E9B01AC01C301B2010E948C0D89
:100E2000209190022111905846E050E00E94A504C4
:100E30008AE291E00E949E041092890260919302DE
:100E40007091940280919502909196020E949E0E5C
:100E500028E23BE64EE65EE40E94FD0D2B013C01DC
:100E6000609191027091920280E090E00E949E0E4B
:100E70009B01AC01C301B2010E948C0D209197022D
:100E80002111905846E050E00E94A50481E391E0D2
:100E90000E949E041092E3026091E8027091E902C0
:100EA0008091EA029091EB020E94A00E28E439EFB3
:100EB00041E550E40E94550F20E030E048EC52E458
:100EC0000E94FD0D42E050E00E94A50487E391E0FE
:100ED0000E949E041092D5026091DA027091DB02AA
:100EE0008091DC029091DD020E94A00E20E030E0B3
:100EF00048EC52E40E94FD0D42E050E00E94A5043F
:100F000080E491E00E949E041092C7026091CC029E
:100F10007091CD028091CE029091CF020E94A00EDE
:100F20002EEB3CE443E95FE30E94550F20E030E004
:100F300048EC52E40E94FD0D42E050E00E94A504FE
:100F400088E491E00E949E041092AB026091AC0292
:100F50007091AD028091AE029091AF02A501940113
:100F60000E94EB0FCA01B9017727882799274AE029
:100F70000E945D048FE491E00E949E041092AB02F7
:100F80006091AC027091AD028091AE029091AF027F
:100F9000A70196010E94EB0FCA01B901A7019601B2
:100FA0000E94EB0F4AE00E945D048FE491E00E94F2
:100FB0009E041092AB026091AC027091AD028091E0
:100FC000AE029091AF02A70196010E94EB0F605311
:100FD000784F80E090E04AE00E945D0481E591E076
:100FE0000E944B0484E591E00E949E041092B90295
:100FF0006091BA027091BB028091BC029091BD02D7
:1010000020E432E44FE050E00E94EB0FCA01B90146
:101010007727882799274AE00E945D048BE591E0B5
:101020000E949E041092B9026091BA027091BB02B4
:101030008091BC029091BD02A50194010E94EB0F2A
:10104000CA01B901A70196010E94EB0F6A3018F49A
:1010500080E30E94A0041092B9026091BA027091DC
:10106000BB028091BC029091BD02A50194010E9437
:10107000EB0FCA01B901A70196010E94EB0F4AE0EC
:101080000E945D048BE591E00E949E041092B902DB
:101090006091BA027091BB028091BC029091BD0236
:1010A000A70196010E94EB0FCA01B901A7019601A1
:1010B0000E94EB0F6A3018F480E30E94A0041092A3
:1010C000B9026091BA027091BB028091BC0290910A
:1010D000BD02A70196010E94EB0FCA01B901A70149
:1010E00096010E94EB0F4AE00E945D0481E591E0C9
:1010F0000E944B048DE591E00E949E041092F10243
:101100006091F6027091F7028091F8029091F902D5
:101110004AE00E945D0481E591E00E944B0481E574
:1011200091E00E944B040E946E052B013C0189E670
:1011300092E00E940102892B09F48EC289E692E0B6
:101140000E941902182F8091250390912603A091E7
:101150002703B09128030196A11DB11D809325039B
:1011600090932603A0932703B0932803143209F425
:1011700052C2E0911F03153234F41A3071F01D3061
:1011800009F056C20AC01A3241F01C3209F050C2AE
:1011900080910C03812780930C03EF3008F02DC25F
:1011A000F0E0E25FFC4F108280910D03882309F488
:1011B0001AC120910E033FEB320F822F022E000C3A
:1011C000990B363010F4C79707C02156263018F413
:1011D0008755910901C0C097282F2295207F309113
:1011E0000F034FEB430F832F032E000C990B463058
:1011F00010F4C79707C03156363018F48755910957
:1012000001C0C097820F90910C038913D8C08091C0
:10121000310390913203A0913303B09134030196CE
:10122000A11DB11D8093310390933203A09333032A
:10123000B093340380912003882399F0809129038F
:1012400090912A03A0912B03B0912C030196A11D2C
:10125000B11D8093290390932A03A0932B03B0938D
:101260002C03C0911D03CC23B9F1C13009F082C019
:101270008AEA92E00E94550288EB92E00E945502B1
:1012800080912003882309F475C087E0E8E9F2E043
:10129000AAE8B2E001900D928A95E1F787E0EFE9C4
:1012A000F2E0A1E9B2E001900D928A95E1F70E9487
:1012B0006E056093A6027093A7028093A802909394
:1012C000A902C0938902C093880286EC92E00E9432
:1012D0003E0284ED92E04CC088EB92E00E94550201
:1012E00080912003882321F187E0E8E9F2E0AAE871
:1012F000B2E001900D928A95E1F787E0EFE9F2E024
:10130000A1E9B2E001900D928A95E1F70E946E0585
:101310006093A6027093A7028093A8029093A902FB
:10132000009389020093880282EE92E00E943E02BE
:101330008091FA029091FB02A091FC02B091FD0213
:101340008093F6029093F702A093F802B093F9020B
:101350000E946E056093F2027093F3028093F40290
:101360009093F5020093F1020093F0028EEF92E069
:101370000E943E02C0912303D0912403209709F4D8
:101380003CC1E0912303F091240366A177A18EA1D3
:101390009FA10E944E10892B09F02FC1BE01CE01E2
:1013A00040960E9457100E946E0568A379A38AA3F5
:1013B0009BA32DA22CA20AA4DBA5C02DDFCF809178
:1013C0002D0390912E03A0912F03B091300301962D
:1013D000A11DB11D80932D0390932E03A0932F0385
:1013E000B09330030AC190911E03911142C064E68C
:1013F00071E08EE093E00E944E10892B41F06AE686
:1014000071E08EE093E00E944E10892B19F4009356
:101410001D0315C060E771E08EE093E00E944E105E
:10142000892B41F066E771E08EE093E00E944E1058
:10143000892B19F410921D0302C030921D03809174
:101440002103909122039093240380932303C0915E
:101450002303D0912403209709F4CFC06EE073E0FA
:101460008EA19FA10E944E1097FFC1C08AA59BA587
:10147000EACFE0911D03E23009F491C080910E03A0
:10148000882309F48CC020E2E29FF0011124E92BAB
:101490003197E932F10508F082C0EC5CFF4F0C9403
:1014A0000D108EE093E00E94F4026093BE027093F0
:1014B000BF028093C0029093C10271C091E0813459
:1014C00009F043C043C068E972E009C091E0833588
:1014D00009F090E090939E0262C06FE972E08EE0A6
:1014E00093E00E946C025BC091E0873509F090E0C8
:1014F0009093A50254C08EE093E00E94F4026093A2
:10150000D0027093D1028093D2029093D30247C04D
:101510008EE093E00E94F4026093DE027093DF029B
:101520008093E0029093E1023AC08EE093E00E9443
:101530004F0D6093B0027093B1028093B20290930A
:10154000B3022DC091E081330CF490E0909320031E
:1015500026C08EE093E00E944F0D6093FA027093D4
:10156000FB028093FC029093FD0219C08EE093E091
:101570000E94F402609308037093090380930A03A6
:1015800090930B030CC08EE093E00E94F4026093F2
:10159000EC027093ED028093EE029093EF02C09103
:1015A0002303D0912403209741F1E0912303F0918C
:1015B000240366A177A18EA19FA10E944E10892BC2
:1015C000E1F428A539A580911E0390E082179307C6
:1015D000A4F02817390739F440E150E06EE073E0D9
:1015E000CE010E945E100AA4DBA5C02DDCCF892BA2
:1015F00021F0109224031092230380911E038F5F29
:1016000080931E0310921F0381E01A3209F080E0DC
:1016100080930D038CCD10921F0310921E03109225
:101620000C0330921D0310920D03109220037FCD06
:10163000EE3040F481E08E0F80931F03F0E0E25F14
:10164000FC4F108380910D03811171CD80910C03AB
:10165000182710930C036BCD0E946E05DC01CB01A3
:1016600084199509A609B709883E9340A105B105DB
:1016700008F45DCD0E948E01ADCB86E191E09093A0
:101680006A02809369028091CA019091CB018956C8
:10169000924071F4E0917C02F0917D029081809102
:1016A0007E028095892380831092CB011092CA011B
:1016B000089590E0FC01E654FF4F2491FC01E050B6
:1016C000FF4F3491FC01E451FF4FE491EE2309F404
:1016D0003CC0222339F1233091F038F42130A9F0B5
:1016E000223001F584B58F7D12C0273091F028306B
:1016F000A1F02430B9F4809180008F7D03C08091E7
:1017000080008F77809380000DC084B58F7784BD73
:1017100009C08091B0008F7703C08091B0008F7DA9
:101720008093B000F0E0EE0FFF1FEE51FF4FA59148
:10173000B4919FB7F894611104C08C91309538230F
:1017400002C0EC913E2B3C939FBF0895CF93DF9353
:101750001092CF011092CE0188EE93E0A0E0B0E0AD
:101760008093D0019093D101A093D201B093D30183
:1017700024E031E03093CD012093CC0125EC30E022
:101780003093D9012093D80124EC30E03093DB0171
:101790002093DA0120EC30E03093DD012093DC016E
:1017A00021EC30E03093DF012093DE0122EC30E0C9
:1017B0003093E1012093E00126EC30E03093E30127
:1017C0002093E2011092E5011092E6011092E701E8
:1017D0001092E801109288021092890210928B02F6
:1017E00010928A0210928C0210928D0210928E0238
:1017F00010928F0210929002109292021092910217
:1018000010929302109294021092950210929602F6
:1018100010929702109299021092980210929A02D6
:1018200010929B0210929C0210929D0210929E02B6
:101830001092A00210929F021092A1021092A20296
:101840001092A3021092A4021092A5021092AA0272
:101850001092AB021092AC021092AD021092AE0246
:101860001092AF021092B8021092B9021092BA020E
:101870001092BB021092BC021092BD021092C602DE
:101880001092C7021092CC021092CD021092CE029A
:101890001092CF021092D4021092D5021092DA0266
:1018A0001092DB021092DC021092DD021092E20232
:1018B0001092E3021092E8021092E9021092EA02FA
:1018C0001092EB021092F0021092F1021092F602C6
:1018D0001092F7021092F8021092F9021092FE0292
:1018E0001092FF0210920403109205031092060357
:1018F0001092070310920C0310920D0322E0209324
:101900001D0310921E0310921F03109220031092C9
:1019100022031092210310922403109223031092A9
:101920002503109226031092270310922803109289
:10193000290310922A0310922B0310922C03109269
:101940002D0310922E0310922F0310923003109249
:101950003103109232031092330310923403109229
:101960000E0310926C0210926B0280936D029093A2
:101970006E02A0936F02B093700286E191E09093A3
:101980006A02809369021092800210927F02109284
:1019900082021092810210928402109283021092AD
:1019A000860210928502609187026E7F6D7F609340
:1019B00087026695617081E0682786E00E94590B76
:1019C000E6E0F1E02491E2EFF0E08491882399F0E1
:1019D00090E0880F991FFC01E852FF4FA591B49148
:1019E000FC01EE51FF4F859194918FB7F894EC91E3
:1019F000E22BEC938FBFE6E0F1E0E491E093790213
:101A0000E2EFF0E0E491F0E0EE0FFF1FEE51FF4F48
:101A10008591949190937B0280937A02E5E0F1E0C6
:101A20002491E1EFF0E084918823C1F090E0880FE9
:101A3000991FFC01E852FF4FC591D491FC01EE5172
:101A4000FF4FA591B4919FB7F8948881E22FE0955C
:101A50008E2388838C91E823EC939FBF809187022B
:101A600081FD04C061E085E00E94590B85E0809310
:101A70007502E5E0F1E0E491E0937602E1EFF0E059
:101A8000E491F0E0EE0FFF1FE253FF4F8591949138
:101A90009093780280937702DF91CF9108951F93FE
:101AA000FC0199278827BC01E89411911032E9F3D1
:101AB000193010F01E30C8F31B3251F01D3249F4BA
:101AC000689406C00E94760D610F711D811D911DE5
:101AD000119110531A30B0F33EF4909580957095A3
:101AE00061957F4F8F4F9F4F1F910895592F482F1A
:101AF000372F262F660F771F881F991F660F771FB6
:101B0000881F991F620F731F841F951F660F771F11
:101B1000881F991F08955058BB27AA270E94A30D1C
:101B20000C94160F0E94080F38F00E940F0F20F03F
:101B300039F49F3F19F426F40C94050F0EF4E09548
:101B4000E7FB0C94FF0EE92F0E94270F58F3BA17FA
:101B5000620773078407950720F079F4A6F50C94C3
:101B6000490F0EF4E0950B2EBA2FA02D0B01B901F1
:101B700090010C01CA01A0011124FF27591B99F003
:101B8000593F50F4503E68F11A16F040A22F232F0F
:101B9000342F4427585FF3CF469537952795A7955F
:101BA000F0405395C9F77EF41F16BA0B620B730B06
:101BB000840BBAF09150A1F0FF0FBB1F661F771F77
:101BC000881FC2F70EC0BA0F621F731F841F48F42C
:101BD000879577956795B795F7959E3F08F0B0CFB5
:101BE0009395880F08F09927EE0F9795879508959C
:101BF0000E94DB0E08F481E008950E94110E0C94FF
:101C0000160F0E940F0F58F00E94080F40F029F4A1
:101C10005F3F29F00C94FF0E51110C944A0F0C9465
:101C2000050F0E94270F68F39923B1F3552391F311
:101C3000951B550BBB27AA2762177307840738F03B
:101C40009F5F5F4F220F331F441FAA1FA9F335D098
:101C50000E2E3AF0E0E832D091505040E695001C4C
:101C6000CAF72BD0FE2F29D0660F771F881FBB1F06
:101C7000261737074807AB07B0E809F0BB0B802DE4
:101C8000BF01FF2793585F4F3AF09E3F510578F010
:101C90000C94FF0E0C944A0F5F3FE4F3983ED4F38C
:101CA000869577956795B795F7959F5FC9F7880FE4
:101CB000911D9695879597F90895E1E0660F771F36
:101CC000881FBB1F621773078407BA0720F0621BC7
:101CD000730B840BBA0BEE1F88F7E09508950E94F2
:101CE0002F0F88F09F5798F0B92F9927B751B0F070
:101CF000E1F0660F771F881F991F1AF0BA95C9F790
:101D000014C0B13091F00E94490FB1E008950C94D5
:101D1000490F672F782F8827B85F39F0B93FCCF388
:101D2000869577956795B395D9F73EF4909580950C
:101D3000709561957F4F8F4F9F4F0895E89409C02C
:101D400097FB3EF490958095709561957F4F8F4FEE
:101D50009F4F9923A9F0F92F96E9BB279395F69504
:101D6000879577956795B795F111F8CFFAF4BB0F82
:101D700011F460FF1BC06F5F7F4F8F4F9F4F16C0E6
:101D8000882311F096E911C0772321F09EE8872F70
:101D9000762F05C0662371F096E8862F70E060E02C
:101DA0002AF09A95660F771F881FDAF7880F9695A5
:101DB000879597F90895990F0008550FAA0BE0E849
:101DC000FEEF16161706E807F907C0F012161306FD
:101DD000E407F50798F0621B730B840B950B39F43D
:101DE0000A2661F0232B242B252B21F408950A26A3
:101DF00009F4A140A6958FEF811D811D089597F9E3
:101E00009F6780E870E060E008959FEF80EC0895A0
:101E100000240A94161617061806090608950024C9
:101E20000A9412161306140605060895092E039443
:101E3000000C11F4882352F0BB0F40F4BF2B11F4B7
:101E400060FF04C06F5F7F4F8F4F9F4F089557FD16
:101E50009058440F551F59F05F3F71F04795880F18
:101E600097FB991F61F09F3F79F0879508951216AF
:101E700013061406551FF2CF4695F1DF08C016165B
:101E800017061806991FF1CF86957105610508940C
:101E90000895E894BB2766277727CB0197F9089523
:101EA0000E94DB0E08F48FEF08950E94680F0C94D7
:101EB000160F0E94080F38F00E940F0F20F0952394
:101EC00011F00C94FF0E0C94050F11240C944A0F82
:101ED0000E94270F70F3959FC1F3950F50E0551F97
:101EE000629FF001729FBB27F00DB11D639FAA276F
:101EF000F00DB11DAA1F649F6627B00DA11D661FBE
:101F0000829F2227B00DA11D621F739FB00DA11DDE
:101F1000621F839FA00D611D221F749F3327A00D98
:101F2000611D231F849F600D211D822F762F6A2F34
:101F300011249F5750409AF0F1F088234AF0EE0F99
:101F4000FF1FBB1F661F771F881F91505040A9F7C6
:101F50009E3F510580F00C94FF0E0C944A0F5F3F9A
:101F6000E4F3983ED4F3869577956795B795F79502
:101F7000E7959F5FC1F7FE2B880F911D969587957A
:101F800097F908950E94DB0E880B990B0895DB01E9
:101F90008F939F930E941310BF91AF91A29F800DCA
:101FA000911DA39F900DB29F900D1124089597FB52
:101FB000072E16F4009407D077FD09D00E94261052
:101FC00007FC05D03EF4909581959F4F089570953C
:101FD00061957F4F0895A1E21A2EAA1BBB1BFD013C
:101FE0000DC0AA1FBB1FEE1FFF1FA217B307E407F8
:101FF000F50720F0A21BB30BE40BF50B661F771F50
:10200000881F991F1A9469F760957095809590952F
:102010009B01AC01BD01CF010895EE0FFF1F05909C
:10202000F491E02D09940E943A10A59F900DB49F61
:10203000900DA49F800D911D11240895B7FF0C945D
:1020400013100E941310821B930B0895AA1BBB1B35
:1020500051E107C0AA1FBB1FA617B70710F0A61BA8
:10206000B70B881F991F5A95A9F780959095BC01C9
:10207000CD010895A29FB001B39FC001A39F700D31
:10208000811D1124911DB29F700D811D1124911D80
:10209000089581E090E0F8940C946D10FB01DC0150
:1020A0008D91019080190110D9F3990B0895FB01CE
:1020B000DC0101900D920020E1F70895FB01DC01A5
:1020C0004150504048F001900D920020C9F701C0E6
:1020D0001D9241505040E0F7089510E0CBE8D0E069
:1020E00004C0FE010E940D102196CC38D107C9F71B
:0420F000F894FFCF92
:1020F400000000001F012104B6006C01E700C500C8
:10210400D90000000000B10121043B02B00101022A
:10211400190298014C61743A20004C6F6E673A20A2
:1021240000416C743A2000436F757273653A200065
:1021340053706565643A2000446174653A20002F49
:10214400000D0A0054696D653A20003A0053617429
:10215400733A20004750524D4300474E524D4300BE
:10216400475047474100474E474741006E616E0064
:08217400696E66006F766600DB
:00000001FF
